:040000006F00005D30
:1000040000000000000000002002000022020000A6
:1000140000000000CE050000000000000000000009
:10002400CE050000CE050000000000000000000026
:100034007602000000000000CE0500000000000071
:10004400CE050000CE050000CE050000CE05000060
:10005400CE050000CE050000CE050000CE05000050
:10006400CE050000CE050000CE050000CE05000040
:10007400CE050000CE050000CE050000CE05000030
:10008400CE050000CE050000CE050000CE05000020
:10009400CE050000CE050000CE050000CE05000010
:1000A400CE050000CE050000CE050000CE05000000
:1000B400CE050000CE050000CE050000CE050000F0
:1000C400CE050000CE050000CE050000CE050000E0
:1000D400CE050000CE050000CE050000CE050000D0
:1000E400CE050000CE050000CE050000CE050000C0
:1000F400CE050000CE050000CE050000CE050000B0
:1001040000000000CE050000CE050000CE05000072
:10011400CE050000CE050000CE050000CE0500008F
:10012400CE050000CE050000CE050000CE0500007F
:10013400CE050000CE050000CE050000CE0500006F
:10014400CE050000CE050000CE050000CE0500005F
:10015400CE050000CE050000CE050000CE0500004F
:10016400CE050000CE050000CE050000CE0500003F
:10017400CE050000CE050000CE050000CE0500002F
:10018400CE050000CE050000CE050000CE0500001F
:10019400CE050000CE050000CE050000CE0500000F
:1001A400000000000000000000000000000000004B
:0C01B4000000000000000000000000003F
:1001C000397101436EC619A0397141536AC866CAB4
:1001D00062CC5ECE19A0397101535AD056D252D496
:1001E0004ED64AD826DA22DC06DE3301614082820E
:1001F00041114AC026C222C406C68282B24D4101C4
:10020000024D924C224CB24B4101024B924A224A7F
:10021000B2494101024992442244B24041018280E4
:1002200001A0B707EFBE37E700E0938707083CC798
:1002300001A0EFF2FFFB41112A848545414502C22E
:1002400002C402C69D2585477C824C00C1473715F4
:1002500001403EC622C4112141016DBFEFF25FF99A
:10026000AA842E895D291334150022862685CA8525
:100270005529228545B75D713ED2B7F700E036D6E5
:10028000D4433AD486C696C49AC29EC022DE2ADCE3
:100290002EDA32D842D046CE72CC76CA7AC87EC622
:1002A0000547639BE60023A2070013858180552440
:1002B00001C513858180C1247254B640A6421643FD
:1002C00086436255D2554256B2562257925702582B
:1002D000F248624ED24E424FB24F616173002030FD
:1002E000EFF21FF19305803E13858180452413852D
:1002F0008180BD2C05B7EFF2BFEF09450D291D2206
:10030000AD2571651305052071255924D13F0D4593
:100310000D371385818099246DDD854537150140A2
:10032000353F138581808124EDB7B717024098438C
:10033000B706FFF041111367170098C3D84337067B
:100340000200758FD8C39843B706F7FEFD16758F68
:1003500098C39843B706FCFFFD16758F98C3D84322
:10036000B70601FFFD16758FD8C39843B70600EC9A
:10037000FD16758F98C33707FF0098C723A607029D
:1003800002C402C69843C166558F98C3B71602408F
:1003900005679C42F18F3EC6A24785073EC4B2471F
:1003A00081E7A247E397E7FEB71702409C43139704
:1003B000E7006357070685473EC632478547631FF8
:1003C000F704B7170240D843B706C1FFFD16D8C3DC
:1003D000D843D8C3D84313670740D8C3D843758FD1
:1003E000D8C3D843B7062900558FD8C39843B7065A
:1003F0000001558F98C3984393166700E3DD06FE0E
:10040000D843B7160240719BD8C3D843136727005F
:10041000D8C32147DC42B18BE39EE7FE41018280D5
:1004200002C661BFB7160240D842B7070020114686
:10043000318B938707026305C70021466308C70213
:1004400037177A001307072098C33717024058431D
:1004500011839376F70037070020130707003697BC
:10046000142398433357D70098C38280D842D4428C
:10047000416649833D8BF18E1306270015CF3D471A
:10048000630FE6024147630FE60245478145631368
:10049000E6004146A1E23747024003270780418B2F
:1004A0000DC737177A00130707203306C70290C31A
:1004B000C9DD9843058349BF81454946E1BF85456C
:1004C0003546C9BF81453D46F1B737173D00130793
:1004D0000790E1BF3715024058559316F70058555D
:1004E00063DF060411833D8B9306170037177A00EC
:1004F000130707203357D70298C35455A182BD8AEA
:100500008DE295463307D702058398C3371702401B
:10051000585794433D8B050733D7E60298C3984359
:1005200069B705456394A600E546E9BF3D45639676
:10053000A600D1463387E602C9BF8906E5BF3D8BD9
:100540009306170037177A00130707203357D7028F
:10055000F1B748417D151335150082804841791562
:100560001335150082808547231005005CC1828009
:1005700085475CC182801E213A218507C207C1835D
:100580001EA16314F70089475CC182802EA182807E
:10059000B7F700E0D8439305803E8146799BD8C3E6
:1005A00037070020032707027D173356B70201479C
:1005B00090CBD4CB814694C7D8C73D4798C3B7E703
:1005C00000E02386E740056723A0E710828001A0B2
:1005D000970100209381012517810020130181A23A
:1005E000170500001305854097050020938585A118
:1005F0001386818063FAC5008322050023A055007D
:1006000011059105E3EAC5FE1385818093858181FB
:100610006377B500232005001105E36DB5FEFD42AB
:10062000739002BCAD4273904280B7620000938227
:10063000820873900230970200009382E29C93E25A
:10064000320073905230EFF05FCE97020000938239
:10065000C2CA73901234730020309C4513F707010F
:1006600013F8F70001C7D8413368E8008E2113F76B
:10067000F50F39C318418146854E3D4F930F8002D7
:1006800093028004214E3396DE00B3F8C500631157
:1006900016039398260033131F011343F3FF337798
:1006A000E300B318180133E7E800639FF70550C96A
:1006B0008506E39AC6FD18C11307F00F6375B704EA
:1006C00054412146854E3D4F930F80029302800492
:1006D000414EB398CE0033F715016392E802131729
:1006E000260001173313EF001343F3FFB376D30053
:1006F0003317E800D98E639DF701232A15010506FB
:10070000E319C6FD54C18280E39457FA10C94DB76E
:10071000E39757FE23281501DDB748456D8D333526
:10072000A000828019C20CC982804CC9828023A893
:10073000A1808280371702405C439146B18B63856C
:10074000D700A1466382D706B7177A0093870720A0
:100750001CC1371602405C4237070020130707010F
:100760009183BD8BBA9794231C41B3D7D7005CC14A
:100770005442A1829D8ABA969422B3D6D70014C55A
:100780005442AD829D8A36971823B3D7E7005CC5E3
:100790005842398393763700138741803697182360
:1007A000B3D7E7021CC982805C435843C166C98342
:1007B000758FB7F6FF1F83A6C670BD8B890713968A
:1007C000160163480600C54601466392D702C94731
:1007D00039A88946638FD702BD46638ED702C146CA
:1007E000638ED702C54601466393D700C1471DEF0C
:1007F0003747024003270780418B05C737177A0028
:1008000013070720B307F7021CC121D61C418583BB
:1008100081B701466DBF0546B547D1BF0146BD470B
:10082000F9B737173D0013070790E9BFB715024026
:10083000D8559316F700D85563DF060411833D8B16
:100840009306170037177A00130707203357D7028C
:1008500018C1D455A182BD8A8DE295463307D702CF
:10086000058318C137170240585714413D8B0507BF
:1008700033D7E60218C1184171B785456394B600B5
:10088000E546E9BFBD456396B600D1463387E6022B
:10089000C9BF8906E5BF3D8B9306170037177A005D
:1008A000130707203357D702F1B799C5371702400E
:1008B0001C4F5D8D08CF8280B7170240984F1345BB
:1008C000F5FF798D88CF8280EFF29F921629F57718
:1008D000FD17F58FF621DA257971D58F1EA95625DA
:1008E000FD779387379FF58FD6212A842EC6D58F23
:1008F0009625D58FB625D58F5EA55E29C207C18303
:1009000093F7F7CFD98F5EA968082D35B747014017
:1009100093870780B245631DF402A2576547B387EA
:10092000E7029841930640060A07B3D7E70233D798
:10093000D702B3F7D7021207920793872703B3D7DB
:10094000D702BD8BD98FC207C1831EA44561D9B020
:100950009257E9B791C55E250967D98F5EA5828058
:100960005A25F977FD17F98FD5BFB707002083A760
:10097000070237177A0013070720B3D7E70293F768
:10098000F70F238BF1801307803EB387E702239A8A
:10099000F1808280EFF2DF852A841165011185459F
:1009A00011052137930700207C82371501408D47C0
:1009B0003EC44C00E147130505803EC6793922C884
:1009C00037440140B70708000C08130504803ECCEB
:1009D00002CA231E0100CD3D8545130504809D3FBD
:0809E00005616FF03F83000088
:1009E80000000000000000000102030406070809D7
:1009F80000000000010203040102030406070809BD
:080A080000D8B805020406083D
:00000001FF
